{
  "contractName": "Review",
  "abi": [
    {
      "inputs": [],
      "stateMutability": "nonpayable",
      "type": "constructor"
    },
    {
      "anonymous": false,
      "inputs": [
        {
          "indexed": false,
          "internalType": "uint256",
          "name": "pid",
          "type": "uint256"
        },
        {
          "indexed": false,
          "internalType": "string",
          "name": "pname",
          "type": "string"
        }
      ],
      "name": "addpackageEvent",
      "type": "event"
    },
    {
      "anonymous": false,
      "inputs": [
        {
          "indexed": false,
          "internalType": "uint256",
          "name": "pid",
          "type": "uint256"
        },
        {
          "indexed": false,
          "internalType": "uint256",
          "name": "avgRating",
          "type": "uint256"
        }
      ],
      "name": "reviewpackageEvent",
      "type": "event"
    },
    {
      "inputs": [],
      "name": "Totalpackages",
      "outputs": [
        {
          "internalType": "uint256",
          "name": "",
          "type": "uint256"
        }
      ],
      "stateMutability": "view",
      "type": "function",
      "constant": true
    },
    {
      "inputs": [
        {
          "internalType": "uint256",
          "name": "",
          "type": "uint256"
        }
      ],
      "name": "packageIds",
      "outputs": [
        {
          "internalType": "uint256",
          "name": "",
          "type": "uint256"
        }
      ],
      "stateMutability": "view",
      "type": "function",
      "constant": true
    },
    {
      "inputs": [
        {
          "internalType": "string",
          "name": "pname",
          "type": "string"
        },
        {
          "internalType": "uint256",
          "name": "price",
          "type": "uint256"
        },
        {
          "internalType": "string",
          "name": "imagehash",
          "type": "string"
        }
      ],
      "name": "addpackage",
      "outputs": [],
      "stateMutability": "nonpayable",
      "type": "function"
    },
    {
      "inputs": [],
      "name": "getTotalpackages",
      "outputs": [
        {
          "internalType": "uint256",
          "name": "",
          "type": "uint256"
        }
      ],
      "stateMutability": "view",
      "type": "function",
      "constant": true
    },
    {
      "inputs": [
        {
          "internalType": "uint256",
          "name": "pid",
          "type": "uint256"
        }
      ],
      "name": "getpackage",
      "outputs": [
        {
          "components": [
            {
              "internalType": "string",
              "name": "packageName",
              "type": "string"
            },
            {
              "internalType": "uint256",
              "name": "packagePrice",
              "type": "uint256"
            },
            {
              "internalType": "string",
              "name": "packageHash",
              "type": "string"
            },
            {
              "internalType": "uint256",
              "name": "avgRating",
              "type": "uint256"
            },
            {
              "internalType": "uint256",
              "name": "totalReviewed",
              "type": "uint256"
            },
            {
              "internalType": "address[]",
              "name": "users",
              "type": "address[]"
            }
          ],
          "internalType": "struct Review.Package",
          "name": "",
          "type": "tuple"
        }
      ],
      "stateMutability": "view",
      "type": "function",
      "constant": true
    },
    {
      "inputs": [
        {
          "internalType": "uint256",
          "name": "packageId",
          "type": "uint256"
        },
        {
          "internalType": "uint256",
          "name": "urating",
          "type": "uint256"
        },
        {
          "internalType": "string",
          "name": "ucomments",
          "type": "string"
        },
        {
          "internalType": "uint256",
          "name": "reviewDate",
          "type": "uint256"
        }
      ],
      "name": "reviewpackage",
      "outputs": [],
      "stateMutability": "nonpayable",
      "type": "function"
    },
    {
      "inputs": [
        {
          "internalType": "uint256",
          "name": "pid",
          "type": "uint256"
        }
      ],
      "name": "getpackageAvgRating",
      "outputs": [
        {
          "internalType": "string",
          "name": "pname",
          "type": "string"
        },
        {
          "internalType": "uint256",
          "name": "avgRating",
          "type": "uint256"
        }
      ],
      "stateMutability": "view",
      "type": "function",
      "constant": true
    },
    {
      "inputs": [
        {
          "internalType": "uint256",
          "name": "pid",
          "type": "uint256"
        }
      ],
      "name": "getCurrentUserComments",
      "outputs": [
        {
          "internalType": "string",
          "name": "ucomments",
          "type": "string"
        }
      ],
      "stateMutability": "view",
      "type": "function",
      "constant": true
    },
    {
      "inputs": [
        {
          "internalType": "uint256",
          "name": "pid",
          "type": "uint256"
        }
      ],
      "name": "getCurrentUserRating",
      "outputs": [
        {
          "internalType": "uint256",
          "name": "urating",
          "type": "uint256"
        }
      ],
      "stateMutability": "view",
      "type": "function",
      "constant": true
    },
    {
      "inputs": [
        {
          "internalType": "uint256",
          "name": "pid",
          "type": "uint256"
        },
        {
          "internalType": "address",
          "name": "user",
          "type": "address"
        }
      ],
      "name": "getUserComments",
      "outputs": [
        {
          "internalType": "string",
          "name": "ucomments",
          "type": "string"
        }
      ],
      "stateMutability": "view",
      "type": "function",
      "constant": true
    },
    {
      "inputs": [
        {
          "internalType": "uint256",
          "name": "pid",
          "type": "uint256"
        },
        {
          "internalType": "address",
          "name": "user",
          "type": "address"
        }
      ],
      "name": "getUserRating",
      "outputs": [
        {
          "internalType": "uint256",
          "name": "urating",
          "type": "uint256"
        }
      ],
      "stateMutability": "view",
      "type": "function",
      "constant": true
    },
    {
      "inputs": [
        {
          "internalType": "uint256",
          "name": "pid",
          "type": "uint256"
        },
        {
          "internalType": "address",
          "name": "user",
          "type": "address"
        }
      ],
      "name": "getUserDateOfReview",
      "outputs": [
        {
          "internalType": "uint256",
          "name": "reviewDate",
          "type": "uint256"
        }
      ],
      "stateMutability": "view",
      "type": "function",
      "constant": true
    },
    {
      "inputs": [],
      "name": "getAllpackagePids",
      "outputs": [
        {
          "internalType": "uint256[]",
          "name": "",
          "type": "uint256[]"
        }
      ],
      "stateMutability": "view",
      "type": "function",
      "constant": true
    },
    {
      "inputs": [
        {
          "internalType": "uint256",
          "name": "pid",
          "type": "uint256"
        }
      ],
      "name": "getAllUsersForpackage",
      "outputs": [
        {
          "internalType": "address[]",
          "name": "",
          "type": "address[]"
        }
      ],
      "stateMutability": "view",
      "type": "function",
      "constant": true
    }
  ],
  "bytecode": "0x608060405234801561001057600080fd5b506000600a8190555061211a806100286000396000f3fe608060405234801561001057600080fd5b50600436106100ea5760003560e01c80635daec6b01161008c578063a20c8d5211610066578063a20c8d5214610285578063a61674c1146102b5578063c4cba828146102e5578063ff332f8514610316576100ea565b80635daec6b01461021b57806362e02d2a1461023957806392c20d4a14610269576100ea565b8063260492cf116100c8578063260492cf1461016d5780633597f5491461019d5780633a9e41e2146101cd57806349de03ec146101eb576100ea565b806312655a6d146100ef57806312f27be61461011f578063245427e01461014f575b600080fd5b6101096004803603810190610104919061121a565b610332565b60405161011691906112d7565b60405180910390f35b61013960048036038101906101349190611357565b61045b565b60405161014691906112d7565b60405180910390f35b610157610585565b60405161016491906113a6565b60405180910390f35b61018760048036038101906101829190611357565b61058b565b60405161019491906113a6565b60405180910390f35b6101b760048036038101906101b2919061121a565b61062c565b6040516101c4919061147f565b60405180910390f35b6101d56106d0565b6040516101e291906113a6565b60405180910390f35b6102056004803603810190610200919061121a565b6106da565b60405161021291906113a6565b60405180910390f35b61022361077a565b604051610230919061155f565b60405180910390f35b610253600480360381019061024e919061121a565b6107d2565b60405161026091906116d1565b60405180910390f35b610283600480360381019061027e9190611828565b6109cf565b005b61029f600480360381019061029a919061121a565b610bef565b6040516102ac91906113a6565b60405180910390f35b6102cf60048036038101906102ca9190611357565b610c13565b6040516102dc91906113a6565b60405180910390f35b6102ff60048036038101906102fa919061121a565b610cb4565b60405161030d9291906118b3565b60405180910390f35b610330600480360381019061032b91906118e3565b610e03565b005b60606000821015610378576040517f08c379a000000000000000000000000000000000000000000000000000000000815260040161036f906119b2565b60405180910390fd5b600d600083815260200190815260200160002060003373ffffffffffffffffffffffffffffffffffffffff1673ffffffffffffffffffffffffffffffffffffffff16815260200190815260200160002060010180546103d690611a01565b80601f016020809104026020016040519081016040528092919081815260200182805461040290611a01565b801561044f5780601f106104245761010080835404028352916020019161044f565b820191906000526020600020905b81548152906001019060200180831161043257829003601f168201915b50505050509050919050565b606060008310156104a1576040517f08c379a0000000000000000000000000000000000000000000000000000000008152600401610498906119b2565b60405180910390fd5b600d600084815260200190815260200160002060008373ffffffffffffffffffffffffffffffffffffffff1673ffffffffffffffffffffffffffffffffffffffff16815260200190815260200160002060010180546104ff90611a01565b80601f016020809104026020016040519081016040528092919081815260200182805461052b90611a01565b80156105785780601f1061054d57610100808354040283529160200191610578565b820191906000526020600020905b81548152906001019060200180831161055b57829003601f168201915b5050505050905092915050565b600a5481565b6000808310156105d0576040517f08c379a00000000000000000000000000000000000000000000000000000000081526004016105c7906119b2565b60405180910390fd5b600d600084815260200190815260200160002060008373ffffffffffffffffffffffffffffffffffffffff1673ffffffffffffffffffffffffffffffffffffffff16815260200190815260200160002060000154905092915050565b6060600b60008381526020019081526020016000206005018054806020026020016040519081016040528092919081815260200182805480156106c457602002820191906000526020600020905b8160009054906101000a900473ffffffffffffffffffffffffffffffffffffffff1673ffffffffffffffffffffffffffffffffffffffff168152602001906001019080831161067a575b50505050509050919050565b6000600a54905090565b60008082101561071f576040517f08c379a0000000000000000000000000000000000000000000000000000000008152600401610716906119b2565b60405180910390fd5b600d600083815260200190815260200160002060003373ffffffffffffffffffffffffffffffffffffffff1673ffffffffffffffffffffffffffffffffffffffff168152602001908152602001600020600001549050919050565b6060600c8054806020026020016040519081016040528092919081815260200182805480156107c857602002820191906000526020600020905b8154815260200190600101908083116107b4575b5050505050905090565b6107da61112b565b600b60008381526020019081526020016000206040518060c001604052908160008201805461080890611a01565b80601f016020809104026020016040519081016040528092919081815260200182805461083490611a01565b80156108815780601f1061085657610100808354040283529160200191610881565b820191906000526020600020905b81548152906001019060200180831161086457829003601f168201915b50505050508152602001600182015481526020016002820180546108a490611a01565b80601f01602080910402602001604051908101604052809291908181526020018280546108d090611a01565b801561091d5780601f106108f25761010080835404028352916020019161091d565b820191906000526020600020905b81548152906001019060200180831161090057829003601f168201915b505050505081526020016003820154815260200160048201548152602001600582018054806020026020016040519081016040528092919081815260200182805480156109bf57602002820191906000526020600020905b8160009054906101000a900473ffffffffffffffffffffffffffffffffffffffff1673ffffffffffffffffffffffffffffffffffffffff1681526020019060010190808311610975575b5050505050815250509050919050565b7fc5d2460186f7233c927e7db2dcc703c0e500b653ca82273b7bfad8045d85a470838051906020012003610a38576040517f08c379a0000000000000000000000000000000000000000000000000000000008152600401610a2f90611a7e565b60405180910390fd5b600a6000815480929190610a4b90611acd565b919050555060006201b206600a54610a639190611b15565b905083600080019081610a769190611cf5565b50826000600101819055508160006002019081610a939190611cf5565b5060008060030181905550600080600401819055506000600501339080600181540180825580915050600190039060005260206000200160009091909190916101000a81548173ffffffffffffffffffffffffffffffffffffffff021916908373ffffffffffffffffffffffffffffffffffffffff160217905550600c8190806001815401808255809150506001900390600052602060002001600090919091909150556000600b600083815260200190815260200160002060008201816000019081610b609190611ddd565b506001820154816001015560028201816002019081610b7f9190611ddd565b5060038201548160030155600482015481600401556005820181600501908054610baa929190611161565b509050507f8db1c73f51a7a060ae85e2ca3000a0fb1e180bd7ca3fa035151f8e9b62e66c42600a5485604051610be1929190611ec5565b60405180910390a150505050565b600c8181548110610bff57600080fd5b906000526020600020016000915090505481565b600080831015610c58576040517f08c379a0000000000000000000000000000000000000000000000000000000008152600401610c4f906119b2565b60405180910390fd5b600d600084815260200190815260200160002060008373ffffffffffffffffffffffffffffffffffffffff1673ffffffffffffffffffffffffffffffffffffffff16815260200190815260200160002060020154905092915050565b6060600080831015610cfb576040517f08c379a0000000000000000000000000000000000000000000000000000000008152600401610cf2906119b2565b60405180910390fd5b600080600b6000868152602001908152602001600020600401541115610d5657600b600085815260200190815260200160002060040154600b600086815260200190815260200160002060030154610d539190611f24565b90505b600b600085815260200190815260200160002060000181818054610d7990611a01565b80601f0160208091040260200160405190810160405280929190818152602001828054610da590611a01565b8015610df25780601f10610dc757610100808354040283529160200191610df2565b820191906000526020600020905b815481529060010190602001808311610dd557829003601f168201915b505050505091509250925050915091565b6000841015610e47576040517f08c379a0000000000000000000000000000000000000000000000000000000008152600401610e3e906119b2565b60405180910390fd5b600083118015610e58575060058311155b610e97576040517f08c379a0000000000000000000000000000000000000000000000000000000008152600401610e8e90611fc7565b60405180910390fd5b60001515600d600086815260200190815260200160002060003373ffffffffffffffffffffffffffffffffffffffff1673ffffffffffffffffffffffffffffffffffffffff16815260200190815260200160002060030160009054906101000a900460ff16151514610f3e576040517f08c379a0000000000000000000000000000000000000000000000000000000008152600401610f3590612059565b60405180910390fd5b6000600b60008681526020019081526020016000209050600a84610f629190612079565b816003016000828254610f759190611b15565b92505081905550806004016000815480929190610f9190611acd565b919050555080600501339080600181540180825580915050600190039060005260206000200160009091909190916101000a81548173ffffffffffffffffffffffffffffffffffffffff021916908373ffffffffffffffffffffffffffffffffffffffff1602179055508360066000018190555082600660010190816110179190611cf5565b50816006600201819055506001600660030160006101000a81548160ff0219169083151502179055506006600d600087815260200190815260200160002060003373ffffffffffffffffffffffffffffffffffffffff1673ffffffffffffffffffffffffffffffffffffffff16815260200190815260200160002060008201548160000155600182018160010190816110b09190611ddd565b50600282015481600201556003820160009054906101000a900460ff168160030160006101000a81548160ff0219169083151502179055509050507fd5a322fc7b55e4eec114ce14df5776c2337f05302db05aa0da667cddca963641858560405161111c9291906120bb565b60405180910390a15050505050565b6040518060c001604052806060815260200160008152602001606081526020016000815260200160008152602001606081525090565b8280548282559060005260206000209081019282156111a25760005260206000209182015b828111156111a1578254825591600101919060010190611186565b5b5090506111af91906111b3565b5090565b5b808211156111cc5760008160009055506001016111b4565b5090565b6000604051905090565b600080fd5b600080fd5b6000819050919050565b6111f7816111e4565b811461120257600080fd5b50565b600081359050611214816111ee565b92915050565b6000602082840312156112305761122f6111da565b5b600061123e84828501611205565b91505092915050565b600081519050919050565b600082825260208201905092915050565b60005b83811015611281578082015181840152602081019050611266565b60008484015250505050565b6000601f19601f8301169050919050565b60006112a982611247565b6112b38185611252565b93506112c3818560208601611263565b6112cc8161128d565b840191505092915050565b600060208201905081810360008301526112f1818461129e565b905092915050565b600073ffffffffffffffffffffffffffffffffffffffff82169050919050565b6000611324826112f9565b9050919050565b61133481611319565b811461133f57600080fd5b50565b6000813590506113518161132b565b92915050565b6000806040838503121561136e5761136d6111da565b5b600061137c85828601611205565b925050602061138d85828601611342565b9150509250929050565b6113a0816111e4565b82525050565b60006020820190506113bb6000830184611397565b92915050565b600081519050919050565b600082825260208201905092915050565b6000819050602082019050919050565b6113f681611319565b82525050565b600061140883836113ed565b60208301905092915050565b6000602082019050919050565b600061142c826113c1565b61143681856113cc565b9350611441836113dd565b8060005b8381101561147257815161145988826113fc565b975061146483611414565b925050600181019050611445565b5085935050505092915050565b600060208201905081810360008301526114998184611421565b905092915050565b600081519050919050565b600082825260208201905092915050565b6000819050602082019050919050565b6114d6816111e4565b82525050565b60006114e883836114cd565b60208301905092915050565b6000602082019050919050565b600061150c826114a1565b61151681856114ac565b9350611521836114bd565b8060005b8381101561155257815161153988826114dc565b9750611544836114f4565b925050600181019050611525565b5085935050505092915050565b600060208201905081810360008301526115798184611501565b905092915050565b600082825260208201905092915050565b600061159d82611247565b6115a78185611581565b93506115b7818560208601611263565b6115c08161128d565b840191505092915050565b600082825260208201905092915050565b60006115e7826113c1565b6115f181856115cb565b93506115fc836113dd565b8060005b8381101561162d57815161161488826113fc565b975061161f83611414565b925050600181019050611600565b5085935050505092915050565b600060c08301600083015184820360008601526116578282611592565b915050602083015161166c60208601826114cd565b50604083015184820360408601526116848282611592565b915050606083015161169960608601826114cd565b5060808301516116ac60808601826114cd565b5060a083015184820360a08601526116c482826115dc565b9150508091505092915050565b600060208201905081810360008301526116eb818461163a565b905092915050565b600080fd5b600080fd5b7f4e487b7100000000000000000000000000000000000000000000000000000000600052604160045260246000fd5b6117358261128d565b810181811067ffffffffffffffff82111715611754576117536116fd565b5b80604052505050565b60006117676111d0565b9050611773828261172c565b919050565b600067ffffffffffffffff821115611793576117926116fd565b5b61179c8261128d565b9050602081019050919050565b82818337600083830152505050565b60006117cb6117c684611778565b61175d565b9050828152602081018484840111156117e7576117e66116f8565b5b6117f28482856117a9565b509392505050565b600082601f83011261180f5761180e6116f3565b5b813561181f8482602086016117b8565b91505092915050565b600080600060608486031215611841576118406111da565b5b600084013567ffffffffffffffff81111561185f5761185e6111df565b5b61186b868287016117fa565b935050602061187c86828701611205565b925050604084013567ffffffffffffffff81111561189d5761189c6111df565b5b6118a9868287016117fa565b9150509250925092565b600060408201905081810360008301526118cd818561129e565b90506118dc6020830184611397565b9392505050565b600080600080608085870312156118fd576118fc6111da565b5b600061190b87828801611205565b945050602061191c87828801611205565b935050604085013567ffffffffffffffff81111561193d5761193c6111df565b5b611949878288016117fa565b925050606061195a87828801611205565b91505092959194509250565b7f7061636b61676569642072657175697265642021000000000000000000000000600082015250565b600061199c601483611252565b91506119a782611966565b602082019050919050565b600060208201905081810360008301526119cb8161198f565b9050919050565b7f4e487b7100000000000000000000000000000000000000000000000000000000600052602260045260246000fd5b60006002820490506001821680611a1957607f821691505b602082108103611a2c57611a2b6119d2565b5b50919050565b7f7061636b616765204e616d652072657175697265642021000000000000000000600082015250565b6000611a68601783611252565b9150611a7382611a32565b602082019050919050565b60006020820190508181036000830152611a9781611a5b565b9050919050565b7f4e487b7100000000000000000000000000000000000000000000000000000000600052601160045260246000fd5b6000611ad8826111e4565b91507fffffffffffffffffffffffffffffffffffffffffffffffffffffffffffffffff8203611b0a57611b09611a9e565b5b600182019050919050565b6000611b20826111e4565b9150611b2b836111e4565b9250828201905080821115611b4357611b42611a9e565b5b92915050565b60008190508160005260206000209050919050565b60006020601f8301049050919050565b600082821b905092915050565b600060088302611bab7fffffffffffffffffffffffffffffffffffffffffffffffffffffffffffffffff82611b6e565b611bb58683611b6e565b95508019841693508086168417925050509392505050565b6000819050919050565b6000611bf2611bed611be8846111e4565b611bcd565b6111e4565b9050919050565b6000819050919050565b611c0c83611bd7565b611c20611c1882611bf9565b848454611b7b565b825550505050565b600090565b611c35611c28565b611c40818484611c03565b505050565b5b81811015611c6457611c59600082611c2d565b600181019050611c46565b5050565b601f821115611ca957611c7a81611b49565b611c8384611b5e565b81016020851015611c92578190505b611ca6611c9e85611b5e565b830182611c45565b50505b505050565b600082821c905092915050565b6000611ccc60001984600802611cae565b1980831691505092915050565b6000611ce58383611cbb565b9150826002028217905092915050565b611cfe82611247565b67ffffffffffffffff811115611d1757611d166116fd565b5b611d218254611a01565b611d2c828285611c68565b600060209050601f831160018114611d5f5760008415611d4d578287015190505b611d578582611cd9565b865550611dbf565b601f198416611d6d86611b49565b60005b82811015611d9557848901518255600182019150602085019450602081019050611d70565b86831015611db25784890151611dae601f891682611cbb565b8355505b6001600288020188555050505b505050505050565b600081549050611dd681611a01565b9050919050565b818103611deb575050611ec3565b611df482611dc7565b67ffffffffffffffff811115611e0d57611e0c6116fd565b5b611e178254611a01565b611e22828285611c68565b6000601f831160018114611e515760008415611e3f578287015490505b611e498582611cd9565b865550611ebc565b601f198416611e5f87611b49565b9650611e6a86611b49565b60005b82811015611e9257848901548255600182019150600185019450602081019050611e6d565b86831015611eaf5784890154611eab601f891682611cbb565b8355505b6001600288020188555050505b5050505050505b565b6000604082019050611eda6000830185611397565b8181036020830152611eec818461129e565b90509392505050565b7f4e487b7100000000000000000000000000000000000000000000000000000000600052601260045260246000fd5b6000611f2f826111e4565b9150611f3a836111e4565b925082611f4a57611f49611ef5565b5b828204905092915050565b7f7061636b61676520726174696e672073686f756c6420626520696e20312d352060008201527f72616e6765202100000000000000000000000000000000000000000000000000602082015250565b6000611fb1602783611252565b9150611fbc82611f55565b604082019050919050565b60006020820190508181036000830152611fe081611fa4565b9050919050565b7f7061636b61676520616c7265616479207265766965776564206279207573657260008201527f2021000000000000000000000000000000000000000000000000000000000000602082015250565b6000612043602283611252565b915061204e82611fe7565b604082019050919050565b6000602082019050818103600083015261207281612036565b9050919050565b6000612084826111e4565b915061208f836111e4565b925082820261209d816111e4565b915082820484148315176120b4576120b3611a9e565b5b5092915050565b60006040820190506120d06000830185611397565b6120dd6020830184611397565b939250505056fea2646970667358221220f1872cc21f49b6438eb422ee46adde56465075d9aeb3f71774d5a1f5f659ca4d64736f6c63430008110033",
  "immutableReferences": {},
  "source": "\r\n// SPDX-License-Identifier: MIT\r\npragma solidity ^0.8.17;\r\npragma experimental ABIEncoderV2;\r\n// Base contract REVIEW\r\ncontract Review {\r\n    struct Package {\r\n        string packageName;\r\n        uint packagePrice;\r\n        string packageHash;\r\n        uint avgRating;\r\n        uint totalReviewed;\r\n        address[] users;\r\n    }\r\n    struct UserInput {\r\n        uint rating;\r\n        string comments;\r\n        uint dateOfReview;\r\n        bool IspackageReviewedByUser;\r\n    }\r\n    \r\n    Package Newpackage;\r\n    UserInput newInput;\r\n    uint public Totalpackages;\r\n    \r\n    mapping(uint => Package) packageDetails;\r\n    uint[]    public packageIds;\r\n    mapping(uint => mapping (address => UserInput)) userReview;\r\n   \r\n    event addpackageEvent( uint pid, string pname );\r\n    event reviewpackageEvent( uint pid, uint avgRating );\r\n    \r\n    constructor() {\r\n        Totalpackages = 0;\r\n    }\r\n    \r\n    function addpackage(string memory pname, uint price, string memory imagehash) public {\r\n        require(keccak256(bytes(pname)) != keccak256(\"\"), \"package Name required !\");\r\n\r\n         Totalpackages++;\r\n         uint pid = Totalpackages + 111110;\r\n        \r\n        Newpackage.packageName = pname;\r\n        Newpackage.packagePrice = price;\r\n        Newpackage.packageHash = imagehash;\r\n        Newpackage.avgRating = 0;\r\n        Newpackage.totalReviewed = 0;\r\n        Newpackage.users.push(msg.sender);\r\n\r\n        packageIds.push(pid);\r\n        packageDetails[pid] = Newpackage;\r\n        \r\n        emit addpackageEvent(Totalpackages, pname);\r\n    }\r\n     function getTotalpackages() public view returns(uint) {\r\n        return Totalpackages;\r\n    }\r\n    \r\n    function getpackage(uint pid) public view returns (Package memory) {\r\n        return packageDetails[pid];\r\n    }\r\n     \r\n    \r\n    function reviewpackage(uint packageId, uint urating, string memory ucomments, uint reviewDate) public {\r\n        require(packageId >= 0, \"packageid required !\");\r\n        require(urating > 0 && urating <= 5, \"package rating should be in 1-5 range !\");\r\n        require(userReview[packageId][msg.sender].IspackageReviewedByUser == false, \"package already reviewed by user !\");\r\n        \r\n        Package storage oldpackage = packageDetails[packageId];\r\n        oldpackage.avgRating += urating * 10;\r\n        oldpackage.totalReviewed++;\r\n        oldpackage.users.push(msg.sender);\r\n\r\n        newInput.rating = urating;\r\n        newInput.comments = ucomments;\r\n        newInput.dateOfReview = reviewDate;\r\n        newInput.IspackageReviewedByUser = true;\r\n        \r\n        userReview[packageId][msg.sender] = newInput;\r\n        \r\n        \r\n        emit reviewpackageEvent(packageId, urating);\r\n    }\r\n    \r\n    \r\n    function getpackageAvgRating(uint pid) public view returns (string memory pname, uint avgRating) {\r\n        require(pid >= 0, \"packageid required !\");\r\n        \r\n        uint allAvgRating = 0;\r\n\r\n        if(packageDetails[pid].totalReviewed > 0)\r\n            allAvgRating = packageDetails[pid].avgRating / packageDetails[pid].totalReviewed;\r\n        \r\n        return (packageDetails[pid].packageName, allAvgRating);\r\n    }\r\n    \r\n    function getCurrentUserComments(uint pid) public view returns (string memory ucomments) {\r\n         require(pid >= 0, \"packageid required !\");\r\n         \r\n         return userReview[pid][msg.sender].comments;\r\n         \r\n    }\r\n    \r\n    function getCurrentUserRating(uint pid) public view returns (uint urating) {\r\n         require(pid >= 0, \"packageid required !\");\r\n         \r\n         return userReview[pid][msg.sender].rating;\r\n         \r\n    }\r\n    \r\n    function getUserComments(uint pid, address user) public view returns (string memory ucomments) {\r\n         require(pid >= 0, \"packageid required !\");\r\n         \r\n         return userReview[pid][user].comments;\r\n         \r\n    }\r\n    \r\n    function getUserRating(uint pid, address user) public view returns (uint urating) {\r\n         require(pid >= 0, \"packageid required !\");\r\n         \r\n         return userReview[pid][user].rating;\r\n         \r\n    }\r\n    \r\n    function getUserDateOfReview(uint pid, address user) public view returns (uint reviewDate) {\r\n         require(pid >= 0, \"packageid required !\");\r\n         \r\n         return userReview[pid][user].dateOfReview;\r\n         \r\n    }\r\n    \r\n    function getAllpackagePids() public view returns (uint[] memory) {\r\n        return packageIds;\r\n    }\r\n\r\n    function getAllUsersForpackage(uint pid) public view returns  (address[] memory){\r\n       return packageDetails[pid].users;\r\n    }\r\n\r\n}\r\n\r\n",
  "sourcePath": "C:\\Users\\kaira\\Downloads\\Blockchain\\PakTourism\\blockchain\\contracts\\Review.sol",
  "compiler": {
    "name": "solc",
    "version": "0.8.17+commit.8df45f5f.Emscripten.clang"
  },
  "schemaVersion": "3.4.10",
  "updatedAt": "2022-11-09T16:12:40.911Z",
  "networkType": "ethereum",
  "devdoc": {
    "kind": "dev",
    "methods": {},
    "version": 1
  },
  "userdoc": {
    "kind": "user",
    "methods": {},
    "version": 1
  }
}